{
  "_format": "hh-sol-artifact-1",
  "contractName": "WilliamNFT",
  "sourceName": "contracts/Will.sol",
  "abi": [
    {
      "inputs": [
        {
          "internalType": "string",
          "name": "_name",
          "type": "string"
        },
        {
          "internalType": "string",
          "name": "_symbol",
          "type": "string"
        },
        {
          "internalType": "string",
          "name": "_initBaseURI",
          "type": "string"
        },
        {
          "internalType": "string",
          "name": "_initNotRevealedUri",
          "type": "string"
        }
      ],
      "stateMutability": "nonpayable",
      "type": "constructor"
    },
    {
      "anonymous": false,
      "inputs": [
        {
          "indexed": true,
          "internalType": "address",
          "name": "owner",
          "type": "address"
        },
        {
          "indexed": true,
          "internalType": "address",
          "name": "approved",
          "type": "address"
        },
        {
          "indexed": true,
          "internalType": "uint256",
          "name": "tokenId",
          "type": "uint256"
        }
      ],
      "name": "Approval",
      "type": "event"
    },
    {
      "anonymous": false,
      "inputs": [
        {
          "indexed": true,
          "internalType": "address",
          "name": "owner",
          "type": "address"
        },
        {
          "indexed": true,
          "internalType": "address",
          "name": "operator",
          "type": "address"
        },
        {
          "indexed": false,
          "internalType": "bool",
          "name": "approved",
          "type": "bool"
        }
      ],
      "name": "ApprovalForAll",
      "type": "event"
    },
    {
      "anonymous": false,
      "inputs": [
        {
          "indexed": false,
          "internalType": "address",
          "name": "sender",
          "type": "address"
        },
        {
          "indexed": false,
          "internalType": "uint256",
          "name": "tokenId",
          "type": "uint256"
        }
      ],
      "name": "NewMint",
      "type": "event"
    },
    {
      "anonymous": false,
      "inputs": [
        {
          "indexed": true,
          "internalType": "address",
          "name": "previousOwner",
          "type": "address"
        },
        {
          "indexed": true,
          "internalType": "address",
          "name": "newOwner",
          "type": "address"
        }
      ],
      "name": "OwnershipTransferred",
      "type": "event"
    },
    {
      "anonymous": false,
      "inputs": [
        {
          "indexed": true,
          "internalType": "address",
          "name": "from",
          "type": "address"
        },
        {
          "indexed": true,
          "internalType": "address",
          "name": "to",
          "type": "address"
        },
        {
          "indexed": true,
          "internalType": "uint256",
          "name": "tokenId",
          "type": "uint256"
        }
      ],
      "name": "Transfer",
      "type": "event"
    },
    {
      "inputs": [
        {
          "internalType": "address",
          "name": "to",
          "type": "address"
        },
        {
          "internalType": "uint256",
          "name": "tokenId",
          "type": "uint256"
        }
      ],
      "name": "approve",
      "outputs": [],
      "stateMutability": "nonpayable",
      "type": "function"
    },
    {
      "inputs": [
        {
          "internalType": "address",
          "name": "owner",
          "type": "address"
        }
      ],
      "name": "balanceOf",
      "outputs": [
        {
          "internalType": "uint256",
          "name": "",
          "type": "uint256"
        }
      ],
      "stateMutability": "view",
      "type": "function"
    },
    {
      "inputs": [],
      "name": "baseExtension",
      "outputs": [
        {
          "internalType": "string",
          "name": "",
          "type": "string"
        }
      ],
      "stateMutability": "view",
      "type": "function"
    },
    {
      "inputs": [],
      "name": "baseURI",
      "outputs": [
        {
          "internalType": "string",
          "name": "",
          "type": "string"
        }
      ],
      "stateMutability": "view",
      "type": "function"
    },
    {
      "inputs": [],
      "name": "cost",
      "outputs": [
        {
          "internalType": "uint256",
          "name": "",
          "type": "uint256"
        }
      ],
      "stateMutability": "view",
      "type": "function"
    },
    {
      "inputs": [
        {
          "internalType": "uint256",
          "name": "tokenId",
          "type": "uint256"
        }
      ],
      "name": "getApproved",
      "outputs": [
        {
          "internalType": "address",
          "name": "",
          "type": "address"
        }
      ],
      "stateMutability": "view",
      "type": "function"
    },
    {
      "inputs": [
        {
          "internalType": "address",
          "name": "owner",
          "type": "address"
        },
        {
          "internalType": "address",
          "name": "operator",
          "type": "address"
        }
      ],
      "name": "isApprovedForAll",
      "outputs": [
        {
          "internalType": "bool",
          "name": "",
          "type": "bool"
        }
      ],
      "stateMutability": "view",
      "type": "function"
    },
    {
      "inputs": [],
      "name": "maxMintAmount",
      "outputs": [
        {
          "internalType": "uint256",
          "name": "",
          "type": "uint256"
        }
      ],
      "stateMutability": "view",
      "type": "function"
    },
    {
      "inputs": [],
      "name": "maxSupply",
      "outputs": [
        {
          "internalType": "uint256",
          "name": "",
          "type": "uint256"
        }
      ],
      "stateMutability": "view",
      "type": "function"
    },
    {
      "inputs": [
        {
          "internalType": "address",
          "name": "_to",
          "type": "address"
        },
        {
          "internalType": "uint256",
          "name": "_mintAmount",
          "type": "uint256"
        }
      ],
      "name": "mint",
      "outputs": [],
      "stateMutability": "payable",
      "type": "function"
    },
    {
      "inputs": [],
      "name": "name",
      "outputs": [
        {
          "internalType": "string",
          "name": "",
          "type": "string"
        }
      ],
      "stateMutability": "view",
      "type": "function"
    },
    {
      "inputs": [],
      "name": "notRevealedUri",
      "outputs": [
        {
          "internalType": "string",
          "name": "",
          "type": "string"
        }
      ],
      "stateMutability": "view",
      "type": "function"
    },
    {
      "inputs": [],
      "name": "owner",
      "outputs": [
        {
          "internalType": "address",
          "name": "",
          "type": "address"
        }
      ],
      "stateMutability": "view",
      "type": "function"
    },
    {
      "inputs": [
        {
          "internalType": "uint256",
          "name": "tokenId",
          "type": "uint256"
        }
      ],
      "name": "ownerOf",
      "outputs": [
        {
          "internalType": "address",
          "name": "",
          "type": "address"
        }
      ],
      "stateMutability": "view",
      "type": "function"
    },
    {
      "inputs": [
        {
          "internalType": "bool",
          "name": "_state",
          "type": "bool"
        }
      ],
      "name": "pause",
      "outputs": [],
      "stateMutability": "nonpayable",
      "type": "function"
    },
    {
      "inputs": [],
      "name": "paused",
      "outputs": [
        {
          "internalType": "bool",
          "name": "",
          "type": "bool"
        }
      ],
      "stateMutability": "view",
      "type": "function"
    },
    {
      "inputs": [
        {
          "internalType": "address",
          "name": "_user",
          "type": "address"
        }
      ],
      "name": "removeWhitelistUser",
      "outputs": [],
      "stateMutability": "nonpayable",
      "type": "function"
    },
    {
      "inputs": [],
      "name": "renounceOwnership",
      "outputs": [],
      "stateMutability": "nonpayable",
      "type": "function"
    },
    {
      "inputs": [],
      "name": "reveal",
      "outputs": [],
      "stateMutability": "nonpayable",
      "type": "function"
    },
    {
      "inputs": [],
      "name": "revealed",
      "outputs": [
        {
          "internalType": "bool",
          "name": "",
          "type": "bool"
        }
      ],
      "stateMutability": "view",
      "type": "function"
    },
    {
      "inputs": [
        {
          "internalType": "address",
          "name": "from",
          "type": "address"
        },
        {
          "internalType": "address",
          "name": "to",
          "type": "address"
        },
        {
          "internalType": "uint256",
          "name": "tokenId",
          "type": "uint256"
        }
      ],
      "name": "safeTransferFrom",
      "outputs": [],
      "stateMutability": "nonpayable",
      "type": "function"
    },
    {
      "inputs": [
        {
          "internalType": "address",
          "name": "from",
          "type": "address"
        },
        {
          "internalType": "address",
          "name": "to",
          "type": "address"
        },
        {
          "internalType": "uint256",
          "name": "tokenId",
          "type": "uint256"
        },
        {
          "internalType": "bytes",
          "name": "_data",
          "type": "bytes"
        }
      ],
      "name": "safeTransferFrom",
      "outputs": [],
      "stateMutability": "nonpayable",
      "type": "function"
    },
    {
      "inputs": [
        {
          "internalType": "address",
          "name": "operator",
          "type": "address"
        },
        {
          "internalType": "bool",
          "name": "approved",
          "type": "bool"
        }
      ],
      "name": "setApprovalForAll",
      "outputs": [],
      "stateMutability": "nonpayable",
      "type": "function"
    },
    {
      "inputs": [
        {
          "internalType": "string",
          "name": "_newBaseExtension",
          "type": "string"
        }
      ],
      "name": "setBaseExtension",
      "outputs": [],
      "stateMutability": "nonpayable",
      "type": "function"
    },
    {
      "inputs": [
        {
          "internalType": "string",
          "name": "_newBaseURI",
          "type": "string"
        }
      ],
      "name": "setBaseURI",
      "outputs": [],
      "stateMutability": "nonpayable",
      "type": "function"
    },
    {
      "inputs": [
        {
          "internalType": "uint256",
          "name": "_newCost",
          "type": "uint256"
        }
      ],
      "name": "setCost",
      "outputs": [],
      "stateMutability": "nonpayable",
      "type": "function"
    },
    {
      "inputs": [
        {
          "internalType": "string",
          "name": "_notRevealedURI",
          "type": "string"
        }
      ],
      "name": "setNotRevealedURI",
      "outputs": [],
      "stateMutability": "nonpayable",
      "type": "function"
    },
    {
      "inputs": [
        {
          "internalType": "uint256",
          "name": "_newmaxMintAmount",
          "type": "uint256"
        }
      ],
      "name": "setmaxMintAmount",
      "outputs": [],
      "stateMutability": "nonpayable",
      "type": "function"
    },
    {
      "inputs": [
        {
          "internalType": "bytes4",
          "name": "interfaceId",
          "type": "bytes4"
        }
      ],
      "name": "supportsInterface",
      "outputs": [
        {
          "internalType": "bool",
          "name": "",
          "type": "bool"
        }
      ],
      "stateMutability": "view",
      "type": "function"
    },
    {
      "inputs": [],
      "name": "symbol",
      "outputs": [
        {
          "internalType": "string",
          "name": "",
          "type": "string"
        }
      ],
      "stateMutability": "view",
      "type": "function"
    },
    {
      "inputs": [
        {
          "internalType": "uint256",
          "name": "index",
          "type": "uint256"
        }
      ],
      "name": "tokenByIndex",
      "outputs": [
        {
          "internalType": "uint256",
          "name": "",
          "type": "uint256"
        }
      ],
      "stateMutability": "view",
      "type": "function"
    },
    {
      "inputs": [
        {
          "internalType": "address",
          "name": "owner",
          "type": "address"
        },
        {
          "internalType": "uint256",
          "name": "index",
          "type": "uint256"
        }
      ],
      "name": "tokenOfOwnerByIndex",
      "outputs": [
        {
          "internalType": "uint256",
          "name": "",
          "type": "uint256"
        }
      ],
      "stateMutability": "view",
      "type": "function"
    },
    {
      "inputs": [
        {
          "internalType": "uint256",
          "name": "tokenId",
          "type": "uint256"
        }
      ],
      "name": "tokenURI",
      "outputs": [
        {
          "internalType": "string",
          "name": "",
          "type": "string"
        }
      ],
      "stateMutability": "view",
      "type": "function"
    },
    {
      "inputs": [],
      "name": "totalSupply",
      "outputs": [
        {
          "internalType": "uint256",
          "name": "",
          "type": "uint256"
        }
      ],
      "stateMutability": "view",
      "type": "function"
    },
    {
      "inputs": [
        {
          "internalType": "address",
          "name": "from",
          "type": "address"
        },
        {
          "internalType": "address",
          "name": "to",
          "type": "address"
        },
        {
          "internalType": "uint256",
          "name": "tokenId",
          "type": "uint256"
        }
      ],
      "name": "transferFrom",
      "outputs": [],
      "stateMutability": "nonpayable",
      "type": "function"
    },
    {
      "inputs": [
        {
          "internalType": "address",
          "name": "newOwner",
          "type": "address"
        }
      ],
      "name": "transferOwnership",
      "outputs": [],
      "stateMutability": "nonpayable",
      "type": "function"
    },
    {
      "inputs": [
        {
          "internalType": "address",
          "name": "_owner",
          "type": "address"
        }
      ],
      "name": "walletOfOwner",
      "outputs": [
        {
          "internalType": "uint256[]",
          "name": "",
          "type": "uint256[]"
        }
      ],
      "stateMutability": "view",
      "type": "function"
    },
    {
      "inputs": [
        {
          "internalType": "address",
          "name": "_user",
          "type": "address"
        }
      ],
      "name": "whitelistUser",
      "outputs": [],
      "stateMutability": "nonpayable",
      "type": "function"
    },
    {
      "inputs": [
        {
          "internalType": "address",
          "name": "",
          "type": "address"
        }
      ],
      "name": "whitelisted",
      "outputs": [
        {
          "internalType": "bool",
          "name": "",
          "type": "bool"
        }
      ],
      "stateMutability": "view",
      "type": "function"
    },
    {
      "inputs": [],
      "name": "withdraw",
      "outputs": [],
      "stateMutability": "payable",
      "type": "function"
    }
  ],
  "bytecode": "0x60806040526040518060400160405280600581526020017f2e6a736f6e000000000000000000000000000000000000000000000000000000815250600c908051906020019062000051929190620003a0565b5066b1a2bc2ec50000600d55600a600e556001600f556001601060006101000a81548160ff0219169083151502179055506000601060016101000a81548160ff021916908315150217905550348015620000aa57600080fd5b5060405162005459380380620054598339818101604052810190620000d09190620004c2565b83838160009080519060200190620000ea929190620003a0565b50806001908051906020019062000103929190620003a0565b505050620001266200011a6200015260201b60201c565b6200015a60201b60201c565b62000137826200022060201b60201c565b6200014881620002cb60201b60201c565b5050505062000785565b600033905090565b6000600a60009054906101000a900473ffffffffffffffffffffffffffffffffffffffff16905081600a60006101000a81548173ffffffffffffffffffffffffffffffffffffffff021916908373ffffffffffffffffffffffffffffffffffffffff1602179055508173ffffffffffffffffffffffffffffffffffffffff168173ffffffffffffffffffffffffffffffffffffffff167f8be0079c531659141344cd1fd0a4f28419497f9722a3daafe3b4186f6b6457e060405160405180910390a35050565b620002306200015260201b60201c565b73ffffffffffffffffffffffffffffffffffffffff16620002566200037660201b60201c565b73ffffffffffffffffffffffffffffffffffffffff1614620002af576040517f08c379a0000000000000000000000000000000000000000000000000000000008152600401620002a690620005b9565b60405180910390fd5b80600b9080519060200190620002c7929190620003a0565b5050565b620002db6200015260201b60201c565b73ffffffffffffffffffffffffffffffffffffffff16620003016200037660201b60201c565b73ffffffffffffffffffffffffffffffffffffffff16146200035a576040517f08c379a00000000000000000000000000000000000000000000000000000000081526004016200035190620005b9565b60405180910390fd5b806011908051906020019062000372929190620003a0565b5050565b6000600a60009054906101000a900473ffffffffffffffffffffffffffffffffffffffff16905090565b828054620003ae9062000681565b90600052602060002090601f016020900481019282620003d257600085556200041e565b82601f10620003ed57805160ff19168380011785556200041e565b828001600101855582156200041e579182015b828111156200041d57825182559160200191906001019062000400565b5b5090506200042d919062000431565b5090565b5b808211156200044c57600081600090555060010162000432565b5090565b600062000467620004618462000604565b620005db565b9050828152602081018484840111156200048057600080fd5b6200048d8482856200064b565b509392505050565b600082601f830112620004a757600080fd5b8151620004b984826020860162000450565b91505092915050565b60008060008060808587031215620004d957600080fd5b600085015167ffffffffffffffff811115620004f457600080fd5b620005028782880162000495565b945050602085015167ffffffffffffffff8111156200052057600080fd5b6200052e8782880162000495565b935050604085015167ffffffffffffffff8111156200054c57600080fd5b6200055a8782880162000495565b925050606085015167ffffffffffffffff8111156200057857600080fd5b620005868782880162000495565b91505092959194509250565b6000620005a16020836200063a565b9150620005ae826200075c565b602082019050919050565b60006020820190508181036000830152620005d48162000592565b9050919050565b6000620005e7620005fa565b9050620005f58282620006b7565b919050565b6000604051905090565b600067ffffffffffffffff8211156200062257620006216200071c565b5b6200062d826200074b565b9050602081019050919050565b600082825260208201905092915050565b60005b838110156200066b5780820151818401526020810190506200064e565b838111156200067b576000848401525b50505050565b600060028204905060018216806200069a57607f821691505b60208210811415620006b157620006b0620006ed565b5b50919050565b620006c2826200074b565b810181811067ffffffffffffffff82111715620006e457620006e36200071c565b5b80604052505050565b7f4e487b7100000000000000000000000000000000000000000000000000000000600052602260045260246000fd5b7f4e487b7100000000000000000000000000000000000000000000000000000000600052604160045260246000fd5b6000601f19601f8301169050919050565b7f4f776e61626c653a2063616c6c6572206973206e6f7420746865206f776e6572600082015250565b614cc480620007956000396000f3fe60806040526004361061023b5760003560e01c806355f804b31161012e578063a475b5dd116100ab578063d936547e1161006f578063d936547e14610843578063da3ef23f14610880578063e985e9c5146108a9578063f2c4ce1e146108e6578063f2fde38b1461090f5761023b565b8063a475b5dd14610770578063b88d4fde14610787578063c6682862146107b0578063c87b56dd146107db578063d5abeb01146108185761023b565b8063715018a6116100f2578063715018a6146106b15780637f00c7a6146106c85780638da5cb5b146106f157806395d89b411461071c578063a22cb465146107475761023b565b806355f804b3146105b85780635c975abb146105e15780636352211e1461060c5780636c0360eb1461064957806370a08231146106745761023b565b80632f745c59116101bc578063438b630011610180578063438b6300146104c157806344a0d68a146104fe5780634a4c560d146105275780634f6ccce714610550578063518302271461058d5761023b565b80632f745c591461040c57806330cc7ae0146104495780633ccfd60b1461047257806340c10f191461047c57806342842e0e146104985761023b565b8063095ea7b311610203578063095ea7b31461033957806313faede61461036257806318160ddd1461038d578063239c70ae146103b857806323b872dd146103e35761023b565b806301ffc9a71461024057806302329a291461027d57806306fdde03146102a6578063081812fc146102d1578063081c8c441461030e575b600080fd5b34801561024c57600080fd5b5061026760048036038101906102629190613780565b610938565b6040516102749190613e50565b60405180910390f35b34801561028957600080fd5b506102a4600480360381019061029f9190613757565b6109b2565b005b3480156102b257600080fd5b506102bb610a4b565b6040516102c89190613e6b565b60405180910390f35b3480156102dd57600080fd5b506102f860048036038101906102f39190613813565b610add565b6040516103059190613d9e565b60405180910390f35b34801561031a57600080fd5b50610323610b62565b6040516103309190613e6b565b60405180910390f35b34801561034557600080fd5b50610360600480360381019061035b919061371b565b610bf0565b005b34801561036e57600080fd5b50610377610d08565b604051610384919061416d565b60405180910390f35b34801561039957600080fd5b506103a2610d0e565b6040516103af919061416d565b60405180910390f35b3480156103c457600080fd5b506103cd610d1b565b6040516103da919061416d565b60405180910390f35b3480156103ef57600080fd5b5061040a60048036038101906104059190613615565b610d21565b005b34801561041857600080fd5b50610433600480360381019061042e919061371b565b610d81565b604051610440919061416d565b60405180910390f35b34801561045557600080fd5b50610470600480360381019061046b91906135b0565b610e26565b005b61047a610efd565b005b6104966004803603810190610491919061371b565b61109c565b005b3480156104a457600080fd5b506104bf60048036038101906104ba9190613615565b611343565b005b3480156104cd57600080fd5b506104e860048036038101906104e391906135b0565b611363565b6040516104f59190613e2e565b60405180910390f35b34801561050a57600080fd5b5061052560048036038101906105209190613813565b61145d565b005b34801561053357600080fd5b5061054e600480360381019061054991906135b0565b6114e3565b005b34801561055c57600080fd5b5061057760048036038101906105729190613813565b6115ba565b604051610584919061416d565b60405180910390f35b34801561059957600080fd5b506105a2611651565b6040516105af9190613e50565b60405180910390f35b3480156105c457600080fd5b506105df60048036038101906105da91906137d2565b611664565b005b3480156105ed57600080fd5b506105f66116fa565b6040516106039190613e50565b60405180910390f35b34801561061857600080fd5b50610633600480360381019061062e9190613813565b61170d565b6040516106409190613d9e565b60405180910390f35b34801561065557600080fd5b5061065e6117bf565b60405161066b9190613e6b565b60405180910390f35b34801561068057600080fd5b5061069b600480360381019061069691906135b0565b61184d565b6040516106a8919061416d565b60405180910390f35b3480156106bd57600080fd5b506106c6611905565b005b3480156106d457600080fd5b506106ef60048036038101906106ea9190613813565b61198d565b005b3480156106fd57600080fd5b50610706611a13565b6040516107139190613d9e565b60405180910390f35b34801561072857600080fd5b50610731611a3d565b60405161073e9190613e6b565b60405180910390f35b34801561075357600080fd5b5061076e600480360381019061076991906136df565b611acf565b005b34801561077c57600080fd5b50610785611ae5565b005b34801561079357600080fd5b506107ae60048036038101906107a99190613664565b611b7e565b005b3480156107bc57600080fd5b506107c5611be0565b6040516107d29190613e6b565b60405180910390f35b3480156107e757600080fd5b5061080260048036038101906107fd9190613813565b611c6e565b60405161080f9190613e6b565b60405180910390f35b34801561082457600080fd5b5061082d611dc7565b60405161083a919061416d565b60405180910390f35b34801561084f57600080fd5b5061086a600480360381019061086591906135b0565b611dcd565b6040516108779190613e50565b60405180910390f35b34801561088c57600080fd5b506108a760048036038101906108a291906137d2565b611ded565b005b3480156108b557600080fd5b506108d060048036038101906108cb91906135d9565b611e83565b6040516108dd9190613e50565b60405180910390f35b3480156108f257600080fd5b5061090d600480360381019061090891906137d2565b611f17565b005b34801561091b57600080fd5b50610936600480360381019061093191906135b0565b611fad565b005b60007f780e9d63000000000000000000000000000000000000000000000000000000007bffffffffffffffffffffffffffffffffffffffffffffffffffffffff1916827bffffffffffffffffffffffffffffffffffffffffffffffffffffffff191614806109ab57506109aa826120a5565b5b9050919050565b6109ba612187565b73ffffffffffffffffffffffffffffffffffffffff166109d8611a13565b73ffffffffffffffffffffffffffffffffffffffff1614610a2e576040517f08c379a0000000000000000000000000000000000000000000000000000000008152600401610a259061408d565b60405180910390fd5b80601060006101000a81548160ff02191690831515021790555050565b606060008054610a5a90614476565b80601f0160208091040260200160405190810160405280929190818152602001828054610a8690614476565b8015610ad35780601f10610aa857610100808354040283529160200191610ad3565b820191906000526020600020905b815481529060010190602001808311610ab657829003601f168201915b5050505050905090565b6000610ae88261218f565b610b27576040517f08c379a0000000000000000000000000000000000000000000000000000000008152600401610b1e9061406d565b60405180910390fd5b6004600083815260200190815260200160002060009054906101000a900473ffffffffffffffffffffffffffffffffffffffff169050919050565b60118054610b6f90614476565b80601f0160208091040260200160405190810160405280929190818152602001828054610b9b90614476565b8015610be85780601f10610bbd57610100808354040283529160200191610be8565b820191906000526020600020905b815481529060010190602001808311610bcb57829003601f168201915b505050505081565b6000610bfb8261170d565b90508073ffffffffffffffffffffffffffffffffffffffff168373ffffffffffffffffffffffffffffffffffffffff161415610c6c576040517f08c379a0000000000000000000000000000000000000000000000000000000008152600401610c63906140cd565b60405180910390fd5b8073ffffffffffffffffffffffffffffffffffffffff16610c8b612187565b73ffffffffffffffffffffffffffffffffffffffff161480610cba5750610cb981610cb4612187565b611e83565b5b610cf9576040517f08c379a0000000000000000000000000000000000000000000000000000000008152600401610cf090613fed565b60405180910390fd5b610d0383836121fb565b505050565b600d5481565b6000600880549050905090565b600f5481565b610d32610d2c612187565b826122b4565b610d71576040517f08c379a0000000000000000000000000000000000000000000000000000000008152600401610d68906140ed565b60405180910390fd5b610d7c838383612392565b505050565b6000610d8c8361184d565b8210610dcd576040517f08c379a0000000000000000000000000000000000000000000000000000000008152600401610dc490613ead565b60405180910390fd5b600660008473ffffffffffffffffffffffffffffffffffffffff1673ffffffffffffffffffffffffffffffffffffffff168152602001908152602001600020600083815260200190815260200160002054905092915050565b610e2e612187565b73ffffffffffffffffffffffffffffffffffffffff16610e4c611a13565b73ffffffffffffffffffffffffffffffffffffffff1614610ea2576040517f08c379a0000000000000000000000000000000000000000000000000000000008152600401610e999061408d565b60405180910390fd5b6000601260008373ffffffffffffffffffffffffffffffffffffffff1673ffffffffffffffffffffffffffffffffffffffff16815260200190815260200160002060006101000a81548160ff02191690831515021790555050565b610f05612187565b73ffffffffffffffffffffffffffffffffffffffff16610f23611a13565b73ffffffffffffffffffffffffffffffffffffffff1614610f79576040517f08c379a0000000000000000000000000000000000000000000000000000000008152600401610f709061408d565b60405180910390fd5b600073c3b08f4e03383f4d3144a656bb4bff0a3c38ff5473ffffffffffffffffffffffffffffffffffffffff166064600547610fb59190614332565b610fbf9190614301565b604051610fcb90613d89565b60006040518083038185875af1925050503d8060008114611008576040519150601f19603f3d011682016040523d82523d6000602084013e61100d565b606091505b505090508061101b57600080fd5b6000611025611a13565b73ffffffffffffffffffffffffffffffffffffffff164760405161104890613d89565b60006040518083038185875af1925050503d8060008114611085576040519150601f19603f3d011682016040523d82523d6000602084013e61108a565b606091505b505090508061109857600080fd5b5050565b60006110a6610d0e565b9050601060009054906101000a900460ff16156110f8576040517f08c379a00000000000000000000000000000000000000000000000000000000081526004016110ef90613eed565b60405180910390fd5b6000821161113b576040517f08c379a00000000000000000000000000000000000000000000000000000000081526004016111329061414d565b60405180910390fd5b600f54821115611180576040517f08c379a000000000000000000000000000000000000000000000000000000000815260040161117790613e8d565b60405180910390fd5b600e54828261118f91906142ab565b11156111d0576040517f08c379a00000000000000000000000000000000000000000000000000000000081526004016111c79061410d565b60405180910390fd5b600d54341015611215576040517f08c379a000000000000000000000000000000000000000000000000000000000815260040161120c90613fcd565b60405180910390fd5b61121d611a13565b73ffffffffffffffffffffffffffffffffffffffff163373ffffffffffffffffffffffffffffffffffffffff16146112c35760011515601260003373ffffffffffffffffffffffffffffffffffffffff1673ffffffffffffffffffffffffffffffffffffffff16815260200190815260200160002060009054906101000a900460ff161515146112c25781600d546112b59190614332565b3410156112c157600080fd5b5b5b6000600190505b82811161133d576112e68482846112e191906142ab565b6125f9565b7f52277f0b4a9b555c5aa96900a13546f972bda413737ec164aac947c87eec602433828461131491906142ab565b604051611322929190613e05565b60405180910390a18080611335906144d9565b9150506112ca565b50505050565b61135e83838360405180602001604052806000815250611b7e565b505050565b606060006113708361184d565b905060008167ffffffffffffffff8111156113b4577f4e487b7100000000000000000000000000000000000000000000000000000000600052604160045260246000fd5b6040519080825280602002602001820160405280156113e25781602001602082028036833780820191505090505b50905060005b82811015611452576113fa8582610d81565b828281518110611433577f4e487b7100000000000000000000000000000000000000000000000000000000600052603260045260246000fd5b602002602001018181525050808061144a906144d9565b9150506113e8565b508092505050919050565b611465612187565b73ffffffffffffffffffffffffffffffffffffffff16611483611a13565b73ffffffffffffffffffffffffffffffffffffffff16146114d9576040517f08c379a00000000000000000000000000000000000000000000000000000000081526004016114d09061408d565b60405180910390fd5b80600d8190555050565b6114eb612187565b73ffffffffffffffffffffffffffffffffffffffff16611509611a13565b73ffffffffffffffffffffffffffffffffffffffff161461155f576040517f08c379a00000000000000000000000000000000000000000000000000000000081526004016115569061408d565b60405180910390fd5b6001601260008373ffffffffffffffffffffffffffffffffffffffff1673ffffffffffffffffffffffffffffffffffffffff16815260200190815260200160002060006101000a81548160ff02191690831515021790555050565b60006115c4610d0e565b8210611605576040517f08c379a00000000000000000000000000000000000000000000000000000000081526004016115fc9061412d565b60405180910390fd5b6008828154811061163f577f4e487b7100000000000000000000000000000000000000000000000000000000600052603260045260246000fd5b90600052602060002001549050919050565b601060019054906101000a900460ff1681565b61166c612187565b73ffffffffffffffffffffffffffffffffffffffff1661168a611a13565b73ffffffffffffffffffffffffffffffffffffffff16146116e0576040517f08c379a00000000000000000000000000000000000000000000000000000000081526004016116d79061408d565b60405180910390fd5b80600b90805190602001906116f69291906133d4565b5050565b601060009054906101000a900460ff1681565b6000806002600084815260200190815260200160002060009054906101000a900473ffffffffffffffffffffffffffffffffffffffff169050600073ffffffffffffffffffffffffffffffffffffffff168173ffffffffffffffffffffffffffffffffffffffff1614156117b6576040517f08c379a00000000000000000000000000000000000000000000000000000000081526004016117ad9061402d565b60405180910390fd5b80915050919050565b600b80546117cc90614476565b80601f01602080910402602001604051908101604052809291908181526020018280546117f890614476565b80156118455780601f1061181a57610100808354040283529160200191611845565b820191906000526020600020905b81548152906001019060200180831161182857829003601f168201915b505050505081565b60008073ffffffffffffffffffffffffffffffffffffffff168273ffffffffffffffffffffffffffffffffffffffff1614156118be576040517f08c379a00000000000000000000000000000000000000000000000000000000081526004016118b59061400d565b60405180910390fd5b600360008373ffffffffffffffffffffffffffffffffffffffff1673ffffffffffffffffffffffffffffffffffffffff168152602001908152602001600020549050919050565b61190d612187565b73ffffffffffffffffffffffffffffffffffffffff1661192b611a13565b73ffffffffffffffffffffffffffffffffffffffff1614611981576040517f08c379a00000000000000000000000000000000000000000000000000000000081526004016119789061408d565b60405180910390fd5b61198b6000612617565b565b611995612187565b73ffffffffffffffffffffffffffffffffffffffff166119b3611a13565b73ffffffffffffffffffffffffffffffffffffffff1614611a09576040517f08c379a0000000000000000000000000000000000000000000000000000000008152600401611a009061408d565b60405180910390fd5b80600f8190555050565b6000600a60009054906101000a900473ffffffffffffffffffffffffffffffffffffffff16905090565b606060018054611a4c90614476565b80601f0160208091040260200160405190810160405280929190818152602001828054611a7890614476565b8015611ac55780601f10611a9a57610100808354040283529160200191611ac5565b820191906000526020600020905b815481529060010190602001808311611aa857829003601f168201915b5050505050905090565b611ae1611ada612187565b83836126dd565b5050565b611aed612187565b73ffffffffffffffffffffffffffffffffffffffff16611b0b611a13565b73ffffffffffffffffffffffffffffffffffffffff1614611b61576040517f08c379a0000000000000000000000000000000000000000000000000000000008152600401611b589061408d565b60405180910390fd5b6001601060016101000a81548160ff021916908315150217905550565b611b8f611b89612187565b836122b4565b611bce576040517f08c379a0000000000000000000000000000000000000000000000000000000008152600401611bc5906140ed565b60405180910390fd5b611bda8484848461284a565b50505050565b600c8054611bed90614476565b80601f0160208091040260200160405190810160405280929190818152602001828054611c1990614476565b8015611c665780601f10611c3b57610100808354040283529160200191611c66565b820191906000526020600020905b815481529060010190602001808311611c4957829003601f168201915b505050505081565b6060611c798261218f565b611cb8576040517f08c379a0000000000000000000000000000000000000000000000000000000008152600401611caf906140ad565b60405180910390fd5b60001515601060019054906101000a900460ff1615151415611d665760118054611ce190614476565b80601f0160208091040260200160405190810160405280929190818152602001828054611d0d90614476565b8015611d5a5780601f10611d2f57610100808354040283529160200191611d5a565b820191906000526020600020905b815481529060010190602001808311611d3d57829003601f168201915b50505050509050611dc2565b6000611d706128a6565b90506000815111611d905760405180602001604052806000815250611dbe565b80611d9a84612938565b600c604051602001611dae93929190613d58565b6040516020818303038152906040525b9150505b919050565b600e5481565b60126020528060005260406000206000915054906101000a900460ff1681565b611df5612187565b73ffffffffffffffffffffffffffffffffffffffff16611e13611a13565b73ffffffffffffffffffffffffffffffffffffffff1614611e69576040517f08c379a0000000000000000000000000000000000000000000000000000000008152600401611e609061408d565b60405180910390fd5b80600c9080519060200190611e7f9291906133d4565b5050565b6000600560008473ffffffffffffffffffffffffffffffffffffffff1673ffffffffffffffffffffffffffffffffffffffff16815260200190815260200160002060008373ffffffffffffffffffffffffffffffffffffffff1673ffffffffffffffffffffffffffffffffffffffff16815260200190815260200160002060009054906101000a900460ff16905092915050565b611f1f612187565b73ffffffffffffffffffffffffffffffffffffffff16611f3d611a13565b73ffffffffffffffffffffffffffffffffffffffff1614611f93576040517f08c379a0000000000000000000000000000000000000000000000000000000008152600401611f8a9061408d565b60405180910390fd5b8060119080519060200190611fa99291906133d4565b5050565b611fb5612187565b73ffffffffffffffffffffffffffffffffffffffff16611fd3611a13565b73ffffffffffffffffffffffffffffffffffffffff1614612029576040517f08c379a00000000000000000000000000000000000000000000000000000000081526004016120209061408d565b60405180910390fd5b600073ffffffffffffffffffffffffffffffffffffffff168173ffffffffffffffffffffffffffffffffffffffff161415612099576040517f08c379a000000000000000000000000000000000000000000000000000000000815260040161209090613f0d565b60405180910390fd5b6120a281612617565b50565b60007f80ac58cd000000000000000000000000000000000000000000000000000000007bffffffffffffffffffffffffffffffffffffffffffffffffffffffff1916827bffffffffffffffffffffffffffffffffffffffffffffffffffffffff1916148061217057507f5b5e139f000000000000000000000000000000000000000000000000000000007bffffffffffffffffffffffffffffffffffffffffffffffffffffffff1916827bffffffffffffffffffffffffffffffffffffffffffffffffffffffff1916145b80612180575061217f82612ae5565b5b9050919050565b600033905090565b60008073ffffffffffffffffffffffffffffffffffffffff166002600084815260200190815260200160002060009054906101000a900473ffffffffffffffffffffffffffffffffffffffff1673ffffffffffffffffffffffffffffffffffffffff1614159050919050565b816004600083815260200190815260200160002060006101000a81548173ffffffffffffffffffffffffffffffffffffffff021916908373ffffffffffffffffffffffffffffffffffffffff160217905550808273ffffffffffffffffffffffffffffffffffffffff1661226e8361170d565b73ffffffffffffffffffffffffffffffffffffffff167f8c5be1e5ebec7d5bd14f71427d1e84f3dd0314c0f7b2291e5b200ac8c7c3b92560405160405180910390a45050565b60006122bf8261218f565b6122fe576040517f08c379a00000000000000000000000000000000000000000000000000000000081526004016122f590613fad565b60405180910390fd5b60006123098361170d565b90508073ffffffffffffffffffffffffffffffffffffffff168473ffffffffffffffffffffffffffffffffffffffff16148061237857508373ffffffffffffffffffffffffffffffffffffffff1661236084610add565b73ffffffffffffffffffffffffffffffffffffffff16145b8061238957506123888185611e83565b5b91505092915050565b8273ffffffffffffffffffffffffffffffffffffffff166123b28261170d565b73ffffffffffffffffffffffffffffffffffffffff1614612408576040517f08c379a00000000000000000000000000000000000000000000000000000000081526004016123ff90613f2d565b60405180910390fd5b600073ffffffffffffffffffffffffffffffffffffffff168273ffffffffffffffffffffffffffffffffffffffff161415612478576040517f08c379a000000000000000000000000000000000000000000000000000000000815260040161246f90613f6d565b60405180910390fd5b612483838383612b4f565b61248e6000826121fb565b6001600360008573ffffffffffffffffffffffffffffffffffffffff1673ffffffffffffffffffffffffffffffffffffffff16815260200190815260200160002060008282546124de919061438c565b925050819055506001600360008473ffffffffffffffffffffffffffffffffffffffff1673ffffffffffffffffffffffffffffffffffffffff168152602001908152602001600020600082825461253591906142ab565b92505081905550816002600083815260200190815260200160002060006101000a81548173ffffffffffffffffffffffffffffffffffffffff021916908373ffffffffffffffffffffffffffffffffffffffff160217905550808273ffffffffffffffffffffffffffffffffffffffff168473ffffffffffffffffffffffffffffffffffffffff167fddf252ad1be2c89b69c2b068fc378daa952ba7f163c4a11628f55a4df523b3ef60405160405180910390a46125f4838383612c63565b505050565b612613828260405180602001604052806000815250612c68565b5050565b6000600a60009054906101000a900473ffffffffffffffffffffffffffffffffffffffff16905081600a60006101000a81548173ffffffffffffffffffffffffffffffffffffffff021916908373ffffffffffffffffffffffffffffffffffffffff1602179055508173ffffffffffffffffffffffffffffffffffffffff168173ffffffffffffffffffffffffffffffffffffffff167f8be0079c531659141344cd1fd0a4f28419497f9722a3daafe3b4186f6b6457e060405160405180910390a35050565b8173ffffffffffffffffffffffffffffffffffffffff168373ffffffffffffffffffffffffffffffffffffffff16141561274c576040517f08c379a000000000000000000000000000000000000000000000000000000000815260040161274390613f8d565b60405180910390fd5b80600560008573ffffffffffffffffffffffffffffffffffffffff1673ffffffffffffffffffffffffffffffffffffffff16815260200190815260200160002060008473ffffffffffffffffffffffffffffffffffffffff1673ffffffffffffffffffffffffffffffffffffffff16815260200190815260200160002060006101000a81548160ff0219169083151502179055508173ffffffffffffffffffffffffffffffffffffffff168373ffffffffffffffffffffffffffffffffffffffff167f17307eab39ab6107e8899845ad3d59bd9653f200f220920489ca2b5937696c318360405161283d9190613e50565b60405180910390a3505050565b612855848484612392565b61286184848484612cc3565b6128a0576040517f08c379a000000000000000000000000000000000000000000000000000000000815260040161289790613ecd565b60405180910390fd5b50505050565b6060600b80546128b590614476565b80601f01602080910402602001604051908101604052809291908181526020018280546128e190614476565b801561292e5780601f106129035761010080835404028352916020019161292e565b820191906000526020600020905b81548152906001019060200180831161291157829003601f168201915b5050505050905090565b60606000821415612980576040518060400160405280600181526020017f30000000000000000000000000000000000000000000000000000000000000008152509050612ae0565b600082905060005b600082146129b257808061299b906144d9565b915050600a826129ab9190614301565b9150612988565b60008167ffffffffffffffff8111156129f4577f4e487b7100000000000000000000000000000000000000000000000000000000600052604160045260246000fd5b6040519080825280601f01601f191660200182016040528015612a265781602001600182028036833780820191505090505b5090505b60008514612ad957600182612a3f919061438c565b9150600a85612a4e9190614522565b6030612a5a91906142ab565b60f81b818381518110612a96577f4e487b7100000000000000000000000000000000000000000000000000000000600052603260045260246000fd5b60200101907effffffffffffffffffffffffffffffffffffffffffffffffffffffffffffff1916908160001a905350600a85612ad29190614301565b9450612a2a565b8093505050505b919050565b60007f01ffc9a7000000000000000000000000000000000000000000000000000000007bffffffffffffffffffffffffffffffffffffffffffffffffffffffff1916827bffffffffffffffffffffffffffffffffffffffffffffffffffffffff1916149050919050565b612b5a838383612e5a565b600073ffffffffffffffffffffffffffffffffffffffff168373ffffffffffffffffffffffffffffffffffffffff161415612b9d57612b9881612e5f565b612bdc565b8173ffffffffffffffffffffffffffffffffffffffff168373ffffffffffffffffffffffffffffffffffffffff1614612bdb57612bda8382612ea8565b5b5b600073ffffffffffffffffffffffffffffffffffffffff168273ffffffffffffffffffffffffffffffffffffffff161415612c1f57612c1a81613015565b612c5e565b8273ffffffffffffffffffffffffffffffffffffffff168273ffffffffffffffffffffffffffffffffffffffff1614612c5d57612c5c8282613158565b5b5b505050565b505050565b612c7283836131d7565b612c7f6000848484612cc3565b612cbe576040517f08c379a0000000000000000000000000000000000000000000000000000000008152600401612cb590613ecd565b60405180910390fd5b505050565b6000612ce48473ffffffffffffffffffffffffffffffffffffffff166133b1565b15612e4d578373ffffffffffffffffffffffffffffffffffffffff1663150b7a02612d0d612187565b8786866040518563ffffffff1660e01b8152600401612d2f9493929190613db9565b602060405180830381600087803b158015612d4957600080fd5b505af1925050508015612d7a57506040513d601f19601f82011682018060405250810190612d7791906137a9565b60015b612dfd573d8060008114612daa576040519150601f19603f3d011682016040523d82523d6000602084013e612daf565b606091505b50600081511415612df5576040517f08c379a0000000000000000000000000000000000000000000000000000000008152600401612dec90613ecd565b60405180910390fd5b805181602001fd5b63150b7a0260e01b7bffffffffffffffffffffffffffffffffffffffffffffffffffffffff1916817bffffffffffffffffffffffffffffffffffffffffffffffffffffffff191614915050612e52565b600190505b949350505050565b505050565b6008805490506009600083815260200190815260200160002081905550600881908060018154018082558091505060019003906000526020600020016000909190919091505550565b60006001612eb58461184d565b612ebf919061438c565b9050600060076000848152602001908152602001600020549050818114612fa4576000600660008673ffffffffffffffffffffffffffffffffffffffff1673ffffffffffffffffffffffffffffffffffffffff168152602001908152602001600020600084815260200190815260200160002054905080600660008773ffffffffffffffffffffffffffffffffffffffff1673ffffffffffffffffffffffffffffffffffffffff168152602001908152602001600020600084815260200190815260200160002081905550816007600083815260200190815260200160002081905550505b6007600084815260200190815260200160002060009055600660008573ffffffffffffffffffffffffffffffffffffffff1673ffffffffffffffffffffffffffffffffffffffff16815260200190815260200160002060008381526020019081526020016000206000905550505050565b60006001600880549050613029919061438c565b905060006009600084815260200190815260200160002054905060006008838154811061307f577f4e487b7100000000000000000000000000000000000000000000000000000000600052603260045260246000fd5b9060005260206000200154905080600883815481106130c7577f4e487b7100000000000000000000000000000000000000000000000000000000600052603260045260246000fd5b90600052602060002001819055508160096000838152602001908152602001600020819055506009600085815260200190815260200160002060009055600880548061313c577f4e487b7100000000000000000000000000000000000000000000000000000000600052603160045260246000fd5b6001900381819060005260206000200160009055905550505050565b60006131638361184d565b905081600660008573ffffffffffffffffffffffffffffffffffffffff1673ffffffffffffffffffffffffffffffffffffffff168152602001908152602001600020600083815260200190815260200160002081905550806007600084815260200190815260200160002081905550505050565b600073ffffffffffffffffffffffffffffffffffffffff168273ffffffffffffffffffffffffffffffffffffffff161415613247576040517f08c379a000000000000000000000000000000000000000000000000000000000815260040161323e9061404d565b60405180910390fd5b6132508161218f565b15613290576040517f08c379a000000000000000000000000000000000000000000000000000000000815260040161328790613f4d565b60405180910390fd5b61329c60008383612b4f565b6001600360008473ffffffffffffffffffffffffffffffffffffffff1673ffffffffffffffffffffffffffffffffffffffff16815260200190815260200160002060008282546132ec91906142ab565b92505081905550816002600083815260200190815260200160002060006101000a81548173ffffffffffffffffffffffffffffffffffffffff021916908373ffffffffffffffffffffffffffffffffffffffff160217905550808273ffffffffffffffffffffffffffffffffffffffff16600073ffffffffffffffffffffffffffffffffffffffff167fddf252ad1be2c89b69c2b068fc378daa952ba7f163c4a11628f55a4df523b3ef60405160405180910390a46133ad60008383612c63565b5050565b6000808273ffffffffffffffffffffffffffffffffffffffff163b119050919050565b8280546133e090614476565b90600052602060002090601f0160209004810192826134025760008555613449565b82601f1061341b57805160ff1916838001178555613449565b82800160010185558215613449579182015b8281111561344857825182559160200191906001019061342d565b5b509050613456919061345a565b5090565b5b8082111561347357600081600090555060010161345b565b5090565b600061348a613485846141ad565b614188565b9050828152602081018484840111156134a257600080fd5b6134ad848285614434565b509392505050565b60006134c86134c3846141de565b614188565b9050828152602081018484840111156134e057600080fd5b6134eb848285614434565b509392505050565b60008135905061350281614c32565b92915050565b60008135905061351781614c49565b92915050565b60008135905061352c81614c60565b92915050565b60008151905061354181614c60565b92915050565b600082601f83011261355857600080fd5b8135613568848260208601613477565b91505092915050565b600082601f83011261358257600080fd5b81356135928482602086016134b5565b91505092915050565b6000813590506135aa81614c77565b92915050565b6000602082840312156135c257600080fd5b60006135d0848285016134f3565b91505092915050565b600080604083850312156135ec57600080fd5b60006135fa858286016134f3565b925050602061360b858286016134f3565b9150509250929050565b60008060006060848603121561362a57600080fd5b6000613638868287016134f3565b9350506020613649868287016134f3565b925050604061365a8682870161359b565b9150509250925092565b6000806000806080858703121561367a57600080fd5b6000613688878288016134f3565b9450506020613699878288016134f3565b93505060406136aa8782880161359b565b925050606085013567ffffffffffffffff8111156136c757600080fd5b6136d387828801613547565b91505092959194509250565b600080604083850312156136f257600080fd5b6000613700858286016134f3565b925050602061371185828601613508565b9150509250929050565b6000806040838503121561372e57600080fd5b600061373c858286016134f3565b925050602061374d8582860161359b565b9150509250929050565b60006020828403121561376957600080fd5b600061377784828501613508565b91505092915050565b60006020828403121561379257600080fd5b60006137a08482850161351d565b91505092915050565b6000602082840312156137bb57600080fd5b60006137c984828501613532565b91505092915050565b6000602082840312156137e457600080fd5b600082013567ffffffffffffffff8111156137fe57600080fd5b61380a84828501613571565b91505092915050565b60006020828403121561382557600080fd5b60006138338482850161359b565b91505092915050565b60006138488383613d3a565b60208301905092915050565b61385d816143c0565b82525050565b600061386e82614234565b6138788185614262565b93506138838361420f565b8060005b838110156138b457815161389b888261383c565b97506138a683614255565b925050600181019050613887565b5085935050505092915050565b6138ca816143d2565b82525050565b60006138db8261423f565b6138e58185614273565b93506138f5818560208601614443565b6138fe8161460f565b840191505092915050565b60006139148261424a565b61391e818561428f565b935061392e818560208601614443565b6139378161460f565b840191505092915050565b600061394d8261424a565b61395781856142a0565b9350613967818560208601614443565b80840191505092915050565b6000815461398081614476565b61398a81866142a0565b945060018216600081146139a557600181146139b6576139e9565b60ff198316865281860193506139e9565b6139bf8561421f565b60005b838110156139e1578154818901526001820191506020810190506139c2565b838801955050505b50505092915050565b60006139ff60248361428f565b9150613a0a82614620565b604082019050919050565b6000613a22602b8361428f565b9150613a2d8261466f565b604082019050919050565b6000613a4560328361428f565b9150613a50826146be565b604082019050919050565b6000613a68601d8361428f565b9150613a738261470d565b602082019050919050565b6000613a8b60268361428f565b9150613a9682614736565b604082019050919050565b6000613aae60258361428f565b9150613ab982614785565b604082019050919050565b6000613ad1601c8361428f565b9150613adc826147d4565b602082019050919050565b6000613af460248361428f565b9150613aff826147fd565b604082019050919050565b6000613b1760198361428f565b9150613b228261484c565b602082019050919050565b6000613b3a602c8361428f565b9150613b4582614875565b604082019050919050565b6000613b5d60218361428f565b9150613b68826148c4565b604082019050919050565b6000613b8060388361428f565b9150613b8b82614913565b604082019050919050565b6000613ba3602a8361428f565b9150613bae82614962565b604082019050919050565b6000613bc660298361428f565b9150613bd1826149b1565b604082019050919050565b6000613be960208361428f565b9150613bf482614a00565b602082019050919050565b6000613c0c602c8361428f565b9150613c1782614a29565b604082019050919050565b6000613c2f60208361428f565b9150613c3a82614a78565b602082019050919050565b6000613c52602f8361428f565b9150613c5d82614aa1565b604082019050919050565b6000613c7560218361428f565b9150613c8082614af0565b604082019050919050565b6000613c98600083614284565b9150613ca382614b3f565b600082019050919050565b6000613cbb60318361428f565b9150613cc682614b42565b604082019050919050565b6000613cde60088361428f565b9150613ce982614b91565b602082019050919050565b6000613d01602c8361428f565b9150613d0c82614bba565b604082019050919050565b6000613d2460208361428f565b9150613d2f82614c09565b602082019050919050565b613d438161442a565b82525050565b613d528161442a565b82525050565b6000613d648286613942565b9150613d708285613942565b9150613d7c8284613973565b9150819050949350505050565b6000613d9482613c8b565b9150819050919050565b6000602082019050613db36000830184613854565b92915050565b6000608082019050613dce6000830187613854565b613ddb6020830186613854565b613de86040830185613d49565b8181036060830152613dfa81846138d0565b905095945050505050565b6000604082019050613e1a6000830185613854565b613e276020830184613d49565b9392505050565b60006020820190508181036000830152613e488184613863565b905092915050565b6000602082019050613e6560008301846138c1565b92915050565b60006020820190508181036000830152613e858184613909565b905092915050565b60006020820190508181036000830152613ea6816139f2565b9050919050565b60006020820190508181036000830152613ec681613a15565b9050919050565b60006020820190508181036000830152613ee681613a38565b9050919050565b60006020820190508181036000830152613f0681613a5b565b9050919050565b60006020820190508181036000830152613f2681613a7e565b9050919050565b60006020820190508181036000830152613f4681613aa1565b9050919050565b60006020820190508181036000830152613f6681613ac4565b9050919050565b60006020820190508181036000830152613f8681613ae7565b9050919050565b60006020820190508181036000830152613fa681613b0a565b9050919050565b60006020820190508181036000830152613fc681613b2d565b9050919050565b60006020820190508181036000830152613fe681613b50565b9050919050565b6000602082019050818103600083015261400681613b73565b9050919050565b6000602082019050818103600083015261402681613b96565b9050919050565b6000602082019050818103600083015261404681613bb9565b9050919050565b6000602082019050818103600083015261406681613bdc565b9050919050565b6000602082019050818103600083015261408681613bff565b9050919050565b600060208201905081810360008301526140a681613c22565b9050919050565b600060208201905081810360008301526140c681613c45565b9050919050565b600060208201905081810360008301526140e681613c68565b9050919050565b6000602082019050818103600083015261410681613cae565b9050919050565b6000602082019050818103600083015261412681613cd1565b9050919050565b6000602082019050818103600083015261414681613cf4565b9050919050565b6000602082019050818103600083015261416681613d17565b9050919050565b60006020820190506141826000830184613d49565b92915050565b60006141926141a3565b905061419e82826144a8565b919050565b6000604051905090565b600067ffffffffffffffff8211156141c8576141c76145e0565b5b6141d18261460f565b9050602081019050919050565b600067ffffffffffffffff8211156141f9576141f86145e0565b5b6142028261460f565b9050602081019050919050565b6000819050602082019050919050565b60008190508160005260206000209050919050565b600081519050919050565b600081519050919050565b600081519050919050565b6000602082019050919050565b600082825260208201905092915050565b600082825260208201905092915050565b600081905092915050565b600082825260208201905092915050565b600081905092915050565b60006142b68261442a565b91506142c18361442a565b9250827fffffffffffffffffffffffffffffffffffffffffffffffffffffffffffffffff038211156142f6576142f5614553565b5b828201905092915050565b600061430c8261442a565b91506143178361442a565b92508261432757614326614582565b5b828204905092915050565b600061433d8261442a565b91506143488361442a565b9250817fffffffffffffffffffffffffffffffffffffffffffffffffffffffffffffffff048311821515161561438157614380614553565b5b828202905092915050565b60006143978261442a565b91506143a28361442a565b9250828210156143b5576143b4614553565b5b828203905092915050565b60006143cb8261440a565b9050919050565b60008115159050919050565b60007fffffffff0000000000000000000000000000000000000000000000000000000082169050919050565b600073ffffffffffffffffffffffffffffffffffffffff82169050919050565b6000819050919050565b82818337600083830152505050565b60005b83811015614461578082015181840152602081019050614446565b83811115614470576000848401525b50505050565b6000600282049050600182168061448e57607f821691505b602082108114156144a2576144a16145b1565b5b50919050565b6144b18261460f565b810181811067ffffffffffffffff821117156144d0576144cf6145e0565b5b80604052505050565b60006144e48261442a565b91507fffffffffffffffffffffffffffffffffffffffffffffffffffffffffffffffff82141561451757614516614553565b5b600182019050919050565b600061452d8261442a565b91506145388361442a565b92508261454857614547614582565b5b828206905092915050565b7f4e487b7100000000000000000000000000000000000000000000000000000000600052601160045260246000fd5b7f4e487b7100000000000000000000000000000000000000000000000000000000600052601260045260246000fd5b7f4e487b7100000000000000000000000000000000000000000000000000000000600052602260045260246000fd5b7f4e487b7100000000000000000000000000000000000000000000000000000000600052604160045260246000fd5b6000601f19601f8301169050919050565b7f546f6f206d616e7920746f6b656e7320666f722074686973207472616e73616360008201527f74696f6e00000000000000000000000000000000000000000000000000000000602082015250565b7f455243373231456e756d657261626c653a206f776e657220696e646578206f7560008201527f74206f6620626f756e6473000000000000000000000000000000000000000000602082015250565b7f4552433732313a207472616e7366657220746f206e6f6e20455243373231526560008201527f63656976657220696d706c656d656e7465720000000000000000000000000000602082015250565b7f4d696e74696e672043757272656e746c7920556e617661696c61626c65000000600082015250565b7f4f776e61626c653a206e6577206f776e657220697320746865207a65726f206160008201527f6464726573730000000000000000000000000000000000000000000000000000602082015250565b7f4552433732313a207472616e736665722066726f6d20696e636f72726563742060008201527f6f776e6572000000000000000000000000000000000000000000000000000000602082015250565b7f4552433732313a20746f6b656e20616c7265616479206d696e74656400000000600082015250565b7f4552433732313a207472616e7366657220746f20746865207a65726f2061646460008201527f7265737300000000000000000000000000000000000000000000000000000000602082015250565b7f4552433732313a20617070726f766520746f2063616c6c657200000000000000600082015250565b7f4552433732313a206f70657261746f7220717565727920666f72206e6f6e657860008201527f697374656e7420746f6b656e0000000000000000000000000000000000000000602082015250565b7f4e6f7420656e6f756768204554482073656e743a20636865636b20707269636560008201527f2e00000000000000000000000000000000000000000000000000000000000000602082015250565b7f4552433732313a20617070726f76652063616c6c6572206973206e6f74206f7760008201527f6e6572206e6f7220617070726f76656420666f7220616c6c0000000000000000602082015250565b7f4552433732313a2062616c616e636520717565727920666f7220746865207a6560008201527f726f206164647265737300000000000000000000000000000000000000000000602082015250565b7f4552433732313a206f776e657220717565727920666f72206e6f6e657869737460008201527f656e7420746f6b656e0000000000000000000000000000000000000000000000602082015250565b7f4552433732313a206d696e7420746f20746865207a65726f2061646472657373600082015250565b7f4552433732313a20617070726f76656420717565727920666f72206e6f6e657860008201527f697374656e7420746f6b656e0000000000000000000000000000000000000000602082015250565b7f4f776e61626c653a2063616c6c6572206973206e6f7420746865206f776e6572600082015250565b7f4552433732314d657461646174613a2055524920717565727920666f72206e6f60008201527f6e6578697374656e7420746f6b656e0000000000000000000000000000000000602082015250565b7f4552433732313a20617070726f76616c20746f2063757272656e74206f776e6560008201527f7200000000000000000000000000000000000000000000000000000000000000602082015250565b50565b7f4552433732313a207472616e736665722063616c6c6572206973206e6f74206f60008201527f776e6572206e6f7220617070726f766564000000000000000000000000000000602082015250565b7f536f6c64206f7574000000000000000000000000000000000000000000000000600082015250565b7f455243373231456e756d657261626c653a20676c6f62616c20696e646578206f60008201527f7574206f6620626f756e64730000000000000000000000000000000000000000602082015250565b7f50726f7669646520616d6f756e7420796f7564206c696b6520746f206d696e74600082015250565b614c3b816143c0565b8114614c4657600080fd5b50565b614c52816143d2565b8114614c5d57600080fd5b50565b614c69816143de565b8114614c7457600080fd5b50565b614c808161442a565b8114614c8b57600080fd5b5056fea2646970667358221220574064c37e4e65f587569f925b3b151c5c0263ed74647f2cfa8933ec3b2a14ec64736f6c63430008040033",
  "linkReferences": {},
  "deployedLinkReferences": {}
}